:020000020000FC
:100000000C9406000C94F9000C94ED00FF248FEF83
:10001000222766277727992741E08ABB87BBF4BA56
:1000200013E511BB18E01EBF1FE51DBF0FEF0FE06A
:1000300005BF00EC0BBF0ABF7894E199FECF2F2DCE
:1000400010E02FBB1EBBE09A4DB30E9429000C9418
:100050005100E199FECF2F2D11E02FBB1EBBE09A7E
:100060006DB308955FEF5BBBF8BA51E152BB0E94DC
:100070001B010E941B010E941B010E941B015FEFDC
:100080005BBBFBBA58BB51E052BB0E941B010E94F4
:100090001B010E941B010E941B0151E045170C949B
:1000A00051000E94050111E051E0411752BB411778
:1000B000C9F212E052E0411752BB411759F013E068
:1000C00053E0411752BB411731F16AEA41E049F769
:1000D0000C9432000E941B010E941B010E941B0114
:1000E0000E941B015AEA5BBB55E558BB52E152BB6B
:1000F0000E941B010E941B010E941B010E941B0108
:100100005AEA58BB55E55BBB52E052BB52E045177B
:1001100041F60C946A000E941B010E941B010E9480
:100120001B010E941B0150B313E2511749F013E861
:100130005117C1F0A13041F1A23059F10C94CE0019
:100140000E941B010E941B010E941B010E941B01B7
:1001500050B313E2A1E05117F1F653B35F11652FCD
:10016000752FEECF0E941B010E941B010E941B01F4
:100170000E941B0150B313E8A2E0511761F653B37C
:100180005F11652F752FEECF9FEF961B792F0C9483
:10019000D40090E8960F792F0C94D4000AEA602FCF
:1001A00085E5782F0C94D40053E152BB6BBB78BB30
:1001B0000E941B010E941B010E941B010E941B0147
:1001C0007BBB68BB53E052BB0E94050153E045175F
:1001D00011F40C948B000C945100CFB7CF934A9537
:1001E000403019F0CF91CFBF189543E0CF91CFBFEA
:1001F0001895CFB7CF9343954430D9F3CF91CFBF64
:10020000189541E0CF91CFBF1895E199FECF20E03E
:1002100010E02FBB1EBB4DBBE29AE19A0E94110178
:100220000895E199FECF20E011E02FBB1EBB6DBB0E
:10023000E29AE19A0895F5E0EFEDDCEBDA95F1F75B
:0E024000EA95E1F7FA95D1F700000000089565
:00000001FF
